S00C0000415053312E7372656303
S2144000001841402029254000D9254000D9254000E8
S214400010D9254000D9254000D925400000000000E1
S214400020000000000000000000000000D92540004D
S214400030D925400000000000D9254000D9254000C1
S214400040D9254000D9254000D9254000D925400073
S214400050D9254000D9254000D9254000D925400063
S214400060D925400000000000E1204000F920400073
S21440007011214000D9254000D9254000D92540000F
S2144000802921400041214000D9254000D925400083
S214400090D9254000D9254000D9254000D925400023
S2144000A0D9254000D9254000D9254000D925400013
S2144000B0D9254000D9254000D9254000D925400003
S2144000C0D9254000D9254000D9254000D9254000F3
S2144000D000000000D925400000000000D92540005F
S2144000E0D9254000D9254000D9254000D9254000D3
S2144000F0D9254000D9254000D9254000D9254000C3
S214400100D9254000D9254000D9254000D9254000B2
S214400110D92540000000000000000000000000005C
S214400120D9254000D9254000D9254000D925400092
S214400130D925400000000000D9254000D9254000C0
S21440014010B5054C237833B9044B13B10448AFF3CC
S21440015000800123237010BD5C1E4020000000007C
S2144001609C5240000C4B43B10C480D4910B5AFF3C0
S21440017000800C48036823B910BD0A48036833B9A9
S2144001807047094B002BF7D0BDE810401847064B88
S214400190002BF5D0184700BF000000009C524000DE
S2144001A0601E40209C5240000000000080B483B097
S2144001B000AF78607B685B6803F00203002B01D0D9
S2144001C0012300E0002318460C37BD465DF8047B4B
S2144001D07047000080B582B000AF78607868034B07
S2144001E0984700BF0837BD4680BD00BF1D2440006D
S2144001F080B582B000AF78607B68094A934203D1ED
S2144002001520084B984706E07B68074A934202D180
S2144002102A20044B984700BF0837BD4680BD00BF24
S21440022000800040D50140000080054080B483B087
S21440023000AF786039607B685B6823F470227B6827
S2144002405A607B685A683B681B0403F470231A4361
S2144002507B685A6000BF0C37BD465DF8047B70472C
S21440026080B584B000AF7860084611461A4603460B
S2144002707B800B467B7013463B7043F69823FB60AF
S21440028006E0FB685A1EFA60002B01D1012320E0ED
S2144002907B681B6903F00203002BF2D078680F4B93
S2144002A098470346002B0ED07A887B781B0403F4CD
S2144002B070231343BB603B78002B06D0BB6843F0EB
S2144002C08073BB6001E07B88BB607B68BA68DA609D
S2144002D0002318461037BD4680BD00BFAD01400024
S2144002E080B485B000AFF860B9607A607B68002B58
S2144002F00CD0FB68BA680C3253F8223043F0010148
S214400300FB68BA680C3243F822100BE0FB68BA6808
S2144003100C3253F8223023F00101FB68BA680C32E5
S21440032043F8221000BF1437BD465DF8047B704783
S21440033080B485B000AFF860B9607A607B68002B07
S2144003400CD0FB68BA680C3253F8223043F00201F6
S214400350FB68BA680C3243F822100BE0FB68BA68B8
S2144003600C3253F8223023F00201FB68BA680C3294
S21440037043F8221000BF1437BD465DF8047B704733
S21440038080B485B000AFF860B9607A607B68042BB3
S21440039018D1FB68BA680C3253F8223023F00801B3
S2144003A0FB68BA680C3243F82210FB68BA680C3215
S2144003B053F8223043F00401FB68BA680C3243F825
S2144003C022102AE07B68002B18D1FB68BA680C32F2
S2144003D053F8223023F00801FB68BA680C3243F821
S2144003E02210FB68BA680C3253F8223023F004011E
S2144003F0FB68BA680C3243F822100EE07B68082B84
S2144004000BD1FB68BA680C3253F8223043F008012F
S214400410FB68BA680C3243F8221000BF1437BD465A
S2144004205DF8047B704780B485B000AFF860B96073
S2144004307A60FB68BA680C3253F8223023F0F00139
S214400440FB68BA680C3243F82210FB68BA680C3274
S21440045053F822207B6842EA0301FB68BA680C32F4
S21440046043F8221000BF1437BD465DF8047B704742
S21440047080B485B000AF786039603A687B681344D2
S2144004805A1E7B68B2FBF3F3FB60FB68002B02DD71
S214400490FB68FF2B02DD4FF0FF3301E0FB681BB229
S2144004A018461437BD465DF8047B704780B485B067
S2144004B000AFF860B9601346FB71FB79002B02D1A0
S2144004C04FF0FF331BE0FB68BA680C3253F822301B
S2144004D023F47F41FB68BA680C3243F82210FB686D
S2144004E0BA680C3253F82220FB791B029BB242EAD0
S2144004F00301FB68BA680C3243F822100023184602
S2144005001437BD465DF8047B7047000080B483B066
S21440051000AF7860044A7B68136000BF0C37BD4666
S2144005205DF8047B704700BF781E402080B483B0DF
S21440053000AF0346FB710B46BB7113467B71084BFD
S2144005401A68FB79DB011946BB790B4413447A7968
S2144005501A7000BF0C37BD465DF8047B704700BF7D
S214400560781E402080B483B000AF03460A46FB7135
S2144005701346BB71074B1A68FB79DB011946BB79FA
S2144005800B4413441B7818460C37BD465DF8047B75
S214400590704700BF781E402090B585B000AF044637
S2144005A0084611461A462346FB710346BB710B4666
S2144005B07B7113463B71FA797B791344802B06DDB9
S2144005C0FB79C3F1FF2303F57F0380337B71BB794F
S2144005D0DB08FB73BA79FB7BDB00D31A012202FAF5
S2144005E003F3BB737B79002B66D03B79012B1CD081
S2144005F0022B5BD0002B3BD05FE0FA797B7913442B
S214400600DAB2FB7B114618462D4B984703467B7360
S2144006107A7BBB7B13437B73FA797B791344D9B2DD
S2144006207A7BF87B0023274CA0477B795A1E7A7149
S214400630002BE2D141E0FA797B791344DAB2FB7BB6
S214400640114618461E4B984703467B7397F90E3063
S214400650DB435AB297F90D3013405BB27B73FA799D
S2144006607B791344D9B27A7BF87B0023154CA0479C
S2144006707B795A1E7A71002BDDD11EE0FA797B79A0
S2144006801344DAB2FB7B114618460D4B9847034697
S2144006907B737A7BBB7B53407B73FA797B791344BD
S2144006A0D9B27A7BF87B0023064CA0477B795A1E4A
S2144006B07A71002BE2D100E000BF1437BD4690BDF2
S2144006C0D50A4000510A400090B583B000AF0446BA
S2144006D0084611461A462346FB710346BB710B4635
S2144006E07B7113463B713B79002B0FD008E0BA79FB
S2144006F03B791344D9B23B7E7A79F879054CA047CA
S2144007003B795A1E3A71002BF1D100E000BF0C37FE
S214400710BD4690BD9905400080B586B000AF3B60B1
S2144007200346FB710B46BB7113467B71BB793B742A
S2144007307B79FB733B681B7ADB08FB743B681B7A50
S21440074003F00703DBB2002B02D0FB7C0133FB74C3
S214400750FB7C9AB23B685B7A9BB212FB03F39AB27D
S214400760FB793968897A5B1A9BB212FB03F3BB812B
S2144007703B685A68BB8913447B613B685B7ABB74B1
S2144007800023BB733B681B7AFB7200237B741EE01E
S2144007907B7C03F00703DBB2002B05D17B691B781B
S2144007A0BB737B6901337B6197F90E30002B05DA0A
S2144007B0F97B3B7C012218460E4B98473B7C013325
S2144007C03B74BB7B5B00BB737B7C01337B747A7C66
S2144007D0FB7A9A42DCD3FB7B0133FB73BB793B74D9
S2144007E0BB7C013BBB74BB7C002BC9D100BF183718
S2144007F0BD4680BDB509400090B585B002AF3B60B0
S2144008000346FB710B46BB7113467B713B681A7AF5
S2144008103B685C7A7979B879002300932346094C83
S214400820A0473B681B78002B00D006E07A79B97960
S214400830F8793B68044CA04700BF00BF0C37BD4664
S21440084090BD00BFC90640001907400090B587B06C
S21440085000AFF8607B600B46FB721346BB72FB7AB8
S214400860FB75FB681B780A2B09D1FB7DFB727B6806
S2144008705A7ABB7A1344DBB20133BB720FE0FB6893
S2144008801B780D2B0BD0FB681878BA7AF97A7B6800
S214400890084CA0477B681A7AFB7A1344FB72FB68C5
S2144008A00133FB60FB681B78002BDAD100BF1C3796
S2144008B0BD4690BDF907400080B582B000AF034604
S2144008C0FB71FB7903F00F03FB71FB7963F04F0379
S2144008D0DBB21846024B984700BF0837BD4680BD7E
S2144008E0BD11400080B582B000AF0346FB71FB7976
S2144008F003F07F03FB71FB791B09DBB243F0100367
S214400900DBB21846064B9847FB7903F00F03DBB281
S2144009101846034B984700BF0837BD4680BD00BF0A
S214400920BD11400080B582B000AF0346FB71FB7935
S21440093003F03F03FB71FB7943F04003DBB21846FC
S214400940024B984700BF0837BD4680BDBD114000EA
S21440095090B583B000AF1248124B9847124B984759
S2144009600020124B98470023FB7112E00023BB7116
S21440097008E0B979F879012300220D4CA047BB79ED
S2144009800133BB7197F90630002BF2DAFB7901335D
S214400990FB71FB79032BE9D900BF0C37BD4690BDF0
S2144009A07C1E40200D0540000D11400025094000EA
S2144009B0510A400090B585B000AF0346FB710B4628
S2144009C0BB7113467B7197F90730002B38DBBB7938
S2144009D01F2B35D8BB79DB08BB73BA79BB7BDB00F2
S2144009E0D31A012202FA03F37B73FA79BB7B1146D2
S2144009F01846154B98470346FB737B79012B04D06A
S214400A00022B11D0002B05D013E0FA7B7B7B1343DF
S214400A10FB730EE097F90D30DB435AB297F90F306F
S214400A2013405BB2FB7304E0FA7B7B7B5340FB7363
S214400A3000BFFA7BF979B87B0023044CA04700E05E
S214400A4000BF1437BD4690BDD50A4000510A40004D
S214400A5090B583B000AF0446084611461A46234672
S214400A60FB710346BB710B467B7113463B713B796A
S214400A7083F00103DBB2002B0AD0BA79FB7911462A
S214400A8018460F4B984703461A467B79934212D036
S214400A907A79B979FB7918460A4B9847FB79184614
S214400AA0094B9847BB791846084B98477B791846B8
S214400AB0074B984700E000BF0C37BD4690BD00BFCF
S214400AC0650540002D054000B9084000E508400097
S214400AD06112400080B582B000AF03460A46FB7103
S214400AE01346BB71BA79FB7911461846034B9847B3
S214400AF0034618460837BD4680BD00BF6505400022
S214400B0080B483B000AF78607B68072B25D801A2FD
S214400B1052F823F0350B40003B0B4000410B4000A1
S214400B20470B40004B0B40004F0B4000530B400020
S214400B30570B40004FF4FA4310E04FF400430DE0EB
S214400B404FF400430AE0084B08E0084B06E0084B29
S214400B5004E0074B02E0064B00E0002318460C3743
S214400B60BD465DF8047B704700093D0000127A00E0
S214400B70001BB70080B500AF0620054B98470246DD
S214400B8013469B0013449A001344184680BD00BF8A
S214400B90010B400080B500AF024B9847034618460D
S214400BA080BD00BF750B400080B500AF024B984734
S214400BB003465B08184680BD750B400080B489B07C
S214400BC000AF78607B68FB61FB69BB61BB695A0913
S214400BD0FB697B617B6903F01F03012101FA03F384
S214400BE03A61FB603B69BB60BA68064B13445B02E4
S214400BF01A46FB68136000BF2437BD465DF8047B89
S214400C00704700BF0707200080B48DB000AF786003
S214400C1039607B68FB623B68BB62FB6A7B627B6ACF
S214400C205A09FB6A3B623B6A03F01F03012101FA43
S214400C3003F3FA61BB61BB6A7B61FB693B613A695E
S214400C40374B13445B02FB607B6903F00803002BC1
S214400C5003D0FB68BA695A6602E0FB68BA691A664E
S214400C607B6903F01003002B04D0FB68BA69C3F815
S214400C70942003E0FB68BA69C3F890207B6903F0D0
S214400C802003002B03D0FB68BA691A6502E0FB68B4
S214400C90BA695A657B6903F0C003002B03D0FB6832
S214400CA0BA691A6202E0FB68BA695A627B6903F065
S214400CB08003002B04D0FB68BA69C3F8842003E0A5
S214400CC0FB68BA69C3F880207B6903F00103002BF8
S214400CD006D0FB681A6FBB691A43FB681A6706E0C2
S214400CE0FB681A6FBB69DB431A40FB681A677B696F
S214400CF003F00203002B06D0FB685A6FBB691A4309
S214400D00FB685A6706E0FB685A6FBB69DB431A40CC
S214400D10FB685A6700BF3437BD465DF8047B7047B2
S214400D200707200080B48DB000AF78600B46FB709C
S214400D307B68FB62FB7887F82B30FB6A7B627B6ABA
S214400D403B623B6A5B09FB61FA69174B13445B02E3
S214400D50BB6197F82B30012B09D1FB6A7B617B691D
S214400D6003F01F0301229A40BB691A610CE097F812
S214400D702B30002B08D1FB6A3B613B6903F01F0315
S214400D8001229A40BB695A61FB6AFB60FB6803F02C
S214400D901F0301229A40BB69C3F8A02000BF343726
S214400DA0BD465DF8047B70470707200080B48BB0D3
S214400DB000AF78600B46FB707B687B62FB7887F8F9
S214400DC023307B6AFB61FB69BB61BB695B097B6166
S214400DD07A69104B13445B023B6197F82330002B33
S214400DE009D07B6AFB60FB6803F01F0301229A4030
S214400DF03B691A6308E07B6ABB60BB6803F01F036D
S214400E0001229A403B695A6300BF2C37BD465DF8C5
S214400E10047B70470707200080B483B000AF78603B
S214400E207B6880221A6000BF0C37BD465DF8047BA5
S214400E30704780B483B000AF78607B6801221A6048
S214400E4000BF0C37BD465DF8047B704780B483B066
S214400E5000AF78607B6802221A6000BF0C37BD4640
S214400E605DF8047B704780B483B000AF78607B68E1
S214400E705B6843F001027B685A6000BF0C37BD4692
S214400E805DF8047B704780B483B000AF78607B68C1
S214400E905B6823F002027B685A6000BF0C37BD4691
S214400EA05DF8047B704780B483B000AF78607B68A1
S214400EB05B6843F010027B685A6000BF0C37BD4643
S214400EC05DF8047B704780B483B000AF78607B6881
S214400ED05B6823F080027B685A6000BF0C37BD46D3
S214400EE05DF8047B7047000080B582B000AF0F4BC2
S214400EF0984702460E4BA3FB02239A0C13469B00D0
S214400F0013445B007B60002151200A4B9847786869
S214400F10094B984701215120064B98477868064B65
S214400F20984700BF0837BD4680BD00BF950B4000C0
S214400F3083DE1B43AD0D40000100402080B500AF6E
S214400F40AF20024B984700BF80BD00BFBD11400098
S214400F5080B582B000AF0346FB718120054B9847B1
S214400F60FB791846034B9847FB7918460837BD4629
S214400F7080BD00BFBD11400080B500AFA620024B2B
S214400F80984700BF80BD00BFBD11400090B583B0FC
S214400F9000AF01215120464B984701212320444B66
S214400FA0984708215120434B984708212320414B1E
S214400FB098472320404B984751203F4B9847012164
S214400FC023203E4B9847012151203C4B9847002315
S214400FD04FF480024FF0805139483A4CA0470023E6
S214400FE04FF400124FF080513548364CA04700234E
S214400FF04FF000724FF080513148324CA0470023EA
S2144010004FF480024FF080512D482E4CA0470023CD
S2144010104FF400124FF0805129482A4CA047002335
S2144010204FF000724FF080512548264CA047264886
S214401030264B98472448264B98472348254B9847A5
S214401040082201212048244B9847002201211E48AF
S214401050224B9847002201211B48214B98471A48AB
S214401060204B98470022012117481F4B98471648A7
S2144010701E4B984714481E4B98471E4B98470346AE
S21440108019461D481D4B984703467B607B68DBB27C
S2144010901A4601210C481A4B98470B48194B98475B
S2144010A00948194B984700BF0C37BD4690BD00BF56
S2144010B0250D4000090C4000BD0B4000AD0D400022
S2144010C000140E40ED1D4000008000404D0E4000D4
S2144010D0190E4000670E400081034000E1024000C8
S2144010E031034000870E400027044000C70E4000F2
S2144010F0A70E4000A90B400040420F00710440007C
S214401100AD044000F1014000330E400080B500AF12
S214401110234B9847234B984701215120224B984711
S214401120A820224B98471F20204B9847D3201F4B80
S214401130984700201D4B984740201C4B9847A120BD
S2144011401A4B9847C820194B9847DA20174B9847B0
S2144011500220164B98478F20154B9847A420134BD8
S2144011609847144B9847D520104B984780200F4BF4
S21440117098478D200D4B984714200C4B9847DB2002
S2144011800A4B98474020094B9847D920074B984729
S214401190F120064B9847084B984700BF80BD00BFDC
S2144011A08D0F4000E90E4000AD0D4000BD114000DF
S2144011B0510F4000790F40003D0F4000F0B583B01E
S2144011C000AF0346FB71002123201C4B98470121AA
S2144011D01B481C4B9847FB7999B2012301221848BB
S2144011E0194CA047194B9847034619464FF0000242
S2144011F00B461446A60046EA93769D002B46344698
S2144012005B1844EB0204DB1844EB04041946224600
S2144012100F4B4FF00004CD1842EB040628463146EB
S2144012200C4C0D4A4FF00003A04703460C461846A8
S2144012300A4B984700BF0C37BD46F0BDAD0D400089
S214401240008000402D02400061024000950B4000A7
S214401250DF835A00F93F4000E0835A0001004020F7
S214401260F0B583B000AF0346FB71012123201C4B31
S214401270984701211B481C4B9847FB7999B201239C
S21440128001221848194CA047194B9847034619465F
S2144012904FF000020B461446A60046EA93769D00A1
S2144012A02B4634465B1844EB0204DB1844EB04043C
S2144012B0194622460F4B4FF00004CD1842EB040669
S2144012C0284631460C4C0D4A4FF00003A0470346D3
S2144012D00C4618460A4B984700BF0C37BD46F0BD33
S2144012E0AD0D4000008000402D02400061024000ED
S2144012F0950B4000DF835A00F93F4000E0835A00D8
S2144013000100402080B582B000AF78607B68072B34
S21440131031D801A252F823F075134000391340002B
S21440132041134000491340005113400059134000F8
S214401330611340006B1340000020114B98471AE0A1
S21440134001200F4B984716E000200E4B984712E0BE
S21440135010200C4B98470EE020200A4B98470AE096
S2144013603E210020084B984705E03E210120064BD1
S214401370984700E000BF00BF0837BD4680BD00BFAD
S21440138059224000C52240003523400080B582B037
S21440139000AF78607B68072B26D801A252F823F06E
S2144013A0C1134000C5134000C5134000D71340008A
S2144013B0D7134000D7134000D7134000D713400040
S2144013C0012312E00B4B98470346002B14BF012322
S2144013D00023DBB209E0084B98470346002B14BFB6
S2144013E001230023DBB200E0002318460837BD4641
S2144013F080BD00BF91224000AD23400080B483B042
S21440140000AF78607B68072B25D801A252F823F0FE
S21440141031144000371440003D144000431440004F
S214401420471440004B1440004F14400053144000F3
S2144014304FF4FA4310E04FF400430DE04FF40043FE
S2144014400AE0084B08E0084B06E0084B04E0074B70
S21440145002E0064B00E0002318460C37BD465DF818
S214401460047B704700093D0000127A00001BB7005D
S21440147080B582B000AF0346FB7100BFFB791846CB
S214401480054B9847034683F00103DBB2002BF5D1AA
S21440149000BF0837BD4680BD8D13400080B586B07E
S2144014A000AFF8607A603B600B46FB727B68002BAF
S2144014B007D13B68002B04D1FB684FF470021A60DA
S2144014C019E0FB7A18460E4B984702467B68B2FBFB
S2144014D0F3F37B617B693A6802FB03F37B613B680D
S2144014E0013B1A04074B13407A68D2B2134343F4C5
S2144014F07C52FB681A6000BF1837BD4680BD00BFEF
S214401500FD1340000000FF0780B582B000AF786052
S21440151039603B68002B08D1094B9847094A7B68DD
S2144015201B6843F00053936205E0064A7B681B68DD
S21440153043F48033D36100BF0837BD4680BD00BF4B
S214401540C923400000060E4080B582B000AF7860E8
S2144015507B68002B03D1054B9847034602E0044BBB
S2144015609847034618460837BD4680BDE5234000E9
S2144015700124400080B582B000AF0346FB71FB7982
S214401580033B042B08D8FB791846064B9847FB7953
S2144015901846054B984700E000BF00BF0837BD46D9
S2144015A080BD00BF051340007114400080B582B076
S2144015B000AF786000BF7868044B98470346002B1E
S2144015C0F9D0002318460837BD4680BD491540006F
S2144015D080B500AF0620054B9847024613469B0051
S2144015E013449A001344184680BD00BFFD134000C4
S2144015F080B500AF024B98470346184680BD00BFF3
S214401600D115400090B583B000AF1348134B9847B0
S2144016100620134B9847381D192301220621114CEA
S214401620A0473B1D002118460F4B984700200F4B04
S214401630984702200E4B984700200E4B98470E4B7B
S21440164098470E4B984703461846044B984700BFAA
S2144016500C37BD4690BD00BF00A3E11149274000AE
S214401660751540009D14400009154000AD1540001A
S21440167059214000D5214000E1254000F1154000A9
S21440168080B400AFBFF34F8FBFF36F8F094B00227C
S214401690C3F85022074A074B5B6943F40033536153
S2144016A0BFF34F8FBFF36F8F00BFBD465DF8047B1F
S2144016B0704700BF00ED00E080B48BB000AF264B13
S2144016C0D3F88030FB61FB695B0BC3F30E037B6290
S2144016D0FB6903F007030433BB61FB69DB08C3F314
S2144016E009037B617B69BB60BB68B3FA83F37B60AD
S2144016F07B68DBB203F01F033B61BFF34F8F7B6910
S2144017003B623A6A3B6902FA03F319467A6ABB6956
S21440171002FA03F30B43FB600F4AFB68C2F86032E1
S2144017203B6A5A1E3A62002BEBD17B6A5A1E7A629B
S214401730002BE4D1BFF34F8F074A074B5B6943F456
S21440174080335361BFF34F8FBFF36F8F00BF2C378B
S214401750BD465DF8047B704700ED00E080B582B082
S21440176000AF78607868034B984700BF0837BD469F
S21440177080BD00BF1D24400080B500AF0A20084B46
S21440178098470B20064B98470C20054B984710204F
S214401790034B98471120024B984700BF80BD00BFBF
S2144017A05D17400080B48DB000AF786039607B68CC
S2144017B0FB623B68BB62FB6A7B627B6A5A09FB6AD8
S2144017C03B623B6A03F01F03012101FA03F3FA610F
S2144017D0BB61BB6A7B61FB693B613A69374B13442B
S2144017E05B02FB607B6903F00803002B03D0FB68B9
S2144017F0BA695A6602E0FB68BA691A667B6903F002
S2144018001003002B04D0FB68BA69C3F8942003E0A9
S214401810FB68BA69C3F890207B6903F02003002B6D
S21440182003D0FB68BA691A6502E0FB68BA695A6574
S2144018307B6903F0C003002B03D0FB68BA691A62C9
S21440184002E0FB68BA695A627B6903F08003002BAA
S21440185004D0FB68BA69C3F8842003E0FB68BA6921
S214401860C3F880207B6903F00103002B06D0FB6899
S2144018701A6FBB691A43FB681A6706E0FB681A6F63
S214401880BB69DB431A40FB681A677B6903F00203B7
S214401890002B06D0FB685A6FBB691A43FB685A6731
S2144018A006E0FB685A6FBB69DB431A40FB685A6721
S2144018B000BF3437BD465DF8047B704707072000FD
S2144018C080B48DB000AF78600B46FB707B68FB62DF
S2144018D0FB7887F82B30FB6A7B627B6A3B623B6A0D
S2144018E05B09FB61FA69174B13445B02BB6197F8CF
S2144018F02B30012B09D1FB6A7B617B6903F01F0308
S21440190001229A40BB691A610CE097F82B30002BF5
S21440191008D1FB6A3B613B6903F01F0301229A40F2
S214401920BB695A61FB6AFB60FB6803F01F03012238
S2144019309A40BB69C3F8A02000BF3437BD465DF867
S214401940047B70470707200080B48BB000AF7860F8
S2144019500B46FB707B687B62FB7887F823307B6A9C
S214401960FB61FB69BB61BB695B097B617A69104BB4
S21440197013445B023B6197F82330002B09D07B6A07
S214401980FB60FB6803F01F0301229A403B691A6321
S21440199008E07B6ABB60BB6803F01F0301229A40E5
S2144019A03B695A6300BF2C37BD465DF8047B7047E1
S2144019B00707200080B48DB000AF78600B46FB7000
S2144019C07B68FB62FB7887F82B30FB6A7B627B6A1E
S2144019D05A09FB6A3B623B6A03F01F03012101FA86
S2144019E003F3FA61BB6197F82B30FB75FB693B61EB
S2144019F03A69234B13445B02FB60FB7D013B032BA0
S214401A002ED801A252F823F03D1A40004F1A40004B
S214401A10191A40002B1A4000FB68BA69C3F8C42064
S214401A20FB68BA69C3F8D0201FE0FB68BA69C3F800
S214401A30C420FB68BA69C3F8D42016E0FB68BA69CC
S214401A40C3F8C020FB68BA69C3F8D0200DE0FB6835
S214401A50BA69C3F8C020FB68BA69C3F8D42004E06A
S214401A60FB68BA69C3F8B42003E0FB68BA69C3F8F8
S214401A70B02000BF3437BD465DF8047B704700BFDA
S214401A800707200080B400AFBFF34F8FBFF36F8FC0
S214401A900C4A0C4BD3F8903223F00103C2F8903234
S214401AA0084A084BD3F8943223F00103C2F8943224
S214401AB0BFF34F8FBFF36F8F00BFBD465DF8047B0B
S214401AC0704700BF00ED00E080B500AF134B4FF409
S214401AD000425A60124B9847124B9847124B134A93
S214401AE05A60114B124A5A60124B9847124B98470D
S214401AF001214820114B984701214820104B984718
S214401B0000210B200D4B984788210B200D4B984702
S214401B1002210B200C4B984700BF80BD50180E404A
S214401B2081164000B9164000000C0E400C08005AC2
S214401B300C07005A851A400079174000C11840002B
S214401B4049194000A5174000B519400080B485B03B
S214401B5000AFF860B9607A607B68002B03D0FB6802
S214401B60BA685A6602E0FB68BA681A6600BF14375D
S214401B70BD465DF8047B704780B483B000AF7860A4
S214401B8039607B683A681A6300BF0C37BD465DF81B
S214401B90047B704780B483B000AF786039607B6860
S214401BA03A685A6300BF0C37BD465DF8047B704701
S214401BB080B487B000AFF860B9607A60BB68B3F1B4
S214401BC0405F03D0BB68B3F1605F03D1FB689B6B9B
S214401BD07B6102E0FB68DB6B7B617A697B68134064
S214401BE0002B01D1002300E0012318461C37BD46D8
S214401BF05DF8047B704780B487B000AFF860B9608A
S214401C007A60FB687A685A64BB68B3F1C05F4AD0B2
S214401C10B3F1C05F08D8B3F1006F16D0B3F1805F60
S214401C202CD0002B69D064E0B3F1205F65D0B3F1CF
S214401C30205F03D8B3F1005F4AD05AE0B3F1405F6B
S214401C405BD0B3F1605F58D053E0FB681B6F7B619D
S214401C50FB681A6F7B68D9437B690B401A40FB6868
S214401C601A67FB685B6F7B61FB685A6F7B68D9437A
S214401C707B690B401A40FB685A673AE0FB681B6F6B
S214401C807B617A687B691A43FB681A67FB685B6FFF
S214401C907B61FB685A6F7B68D9437B690B401A406F
S214401CA0FB685A6725E0FB681B6F7B61FB681A6F11
S214401CB07B68D9437B690B401A40FB681A67FB6810
S214401CC05B6F7B617A687B691A43FB685A6710E0F2
S214401CD0FB681B6F7B617A687B691A43FB681A67EF
S214401CE0FB685B6F7B617A687B691A43FB685A675F
S214401CF000BFFB687A685A6000E000BF1C37BD46EC
S214401D005DF8047B7047000080B584B000AFF86093
S214401D10B9607A60B968F868194B98477B6803F0F1
S214401D2001031A46B968F868164B98477B6803F073
S214401D300A03002B03D0FB68BA681A6202E0FB680D
S214401D40BA685A627B6803F00203002B04D0FB6833
S214401D50BA68C3F8802008E07B6803F00803002BCD
S214401D6003D0FB68BA68C3F88420FB68BA685A6137
S214401D70FB68BA681A6000BF1037BD4680BD00BF1A
S214401D80411F40004D1B400080B584B000AFF86056
S214401D90B9607A603B60B968F868124B9847BA6990
S214401DA0B968F868104B98473B68002B03D0FB682F
S214401DB0BA681A6502E0FB68BA685A657B68002B09
S214401DC003D0FB68BA681A6302E0FB68BA685A63D5
S214401DD0FB68BA681A61FB68BA681A6000BF1037B9
S214401DE0BD4680BD411F40004D1B400090B587B0AA
S214401DF002AFF860B9607A603B60BB68B3F1005FE1
S214401E0016D0B3F1005F09D8B3F1805F10D0B3F1BC
S214401E10C05F0DD0B3F1006F0AD03DE0B3F1405F34
S214401E201AD0B3F1605F17D0B3F1205F0ED033E025
S214401E307A68B968F8681C4B98473B6803F001031A
S214401E401A467968F868194B984727E03A687968DF
S214401E50F868174B984721E0BB68B3F1605F0CBF4A
S214401E6001230023DBB21A463B6803F00403002B31
S214401E7014BF01230023DBB219463B6803F001037D
S214401E80002B14BF01230023DBB200930B46796876
S214401E90F868084CA04701E0002300E001231846FC
S214401EA01437BD4690BD00BFF71B40004D1B400099
S214401EB0091D4000891D400080B485B000AFF86021
S214401EC0B9607A607B6803F01003002B20D0FB6873
S214401ED0BA68C3F8B0207B6803F02003002B04D018
S214401EE0FB68BA68C3F8D42003E0FB68BA68C3F856
S214401EF0D0207B6803F04003002B04D0FB68BA6810
S214401F00C3F8C02008E0FB68BA68C3F8C42003E002
S214401F10FB68BA68C3F8B42000BF1437BD465DF806
S214401F20047B704780B483B000AF786039607B68CC
S214401F303A681A6400BF0C37BD465DF8047B7047AC
S214401F4080B483B000AF786039607B683A685A6482
S214401F5000BF0C37BD465DF8047B704780B483B045
S214401F6000AF78607B68DB6C18460C37BD465DF882
S214401F70047B704780B483B000AF78607B689B6C0E
S214401F8018460C37BD465DF8047B704780B584B074
S214401F9000AF786039607868264B9847F860786874
S214401FA0254B98470246FB681340FB60FB68002BB6
S214401FB03CD00023BB6034E0204ABB681B0113447E
S214401FC01A683B689A4226D11C4ABB681B011344D8
S214401FD004331A68FB681340002B1CD0174ABB68B2
S214401FE01B0113440C331B681449BA6812010A4497
S214401FF010681249BA6812010A440432126811463F
S21440200098470E4ABB681B01134404331B68DB43E6
S214402010FA681340FB60BB680133BB60BB68062BA5
S21440202003D8FB68002BC7D100E000BF00BF1037C5
S214402030BD4680BD5D1F4000751F40007C2040208F
S21440204080B586B000AFF860B9607A603B60214BDF
S2144020501B68062B01D9012338E00023FB7511E0ED
S214402060FB7D1B011C4A13443B613B691A68BB68F5
S2144020709A4204D13B695A687B689A4208D0FB7DF5
S2144020800133FB75FA7D134B1B689A42E8D900E092
S21440209000BF3B69BA681A603B697A685A603B6918
S2144020A03A689A603B693A6ADA60FA7D094B1B687F
S2144020B001339A4204D1074B1B680133054A13602B
S2144020C03A687968F868054B9847002318461837E9
S2144020D0BD4680BDEC2040207C204020B91E4000FC
S2144020E080B500AF0A210248024B984700BF80BD2A
S2144020F0000E0E408D1F400080B500AF0B210248F9
S214402100024B984700BF80BD00100E408D1F400018
S21440211080B500AF0C210248024B984700BF80BDF7
S21440212000120E408D1F400080B500AF10210248BF
S214402130024B984700BF80BD00140E408D1F4000E4
S21440214080B500AF11210248024B984700BF80BDC2
S21440215000160E408D1F400080B483B000AF7860FC
S2144021607B68013B032B1AD801A252F823F000BF2C
S21440217081214000872140008F2140009721400068
S21440218000237B600EE04FF480737B600AE04FF4E0
S21440219040737B6006E04FF400737B6002E00023F0
S2144021A07B6000BF0A490A4B1B6B23F440727B6876
S2144021B013430B6300BF064B9B6E03F00803002BD4
S2144021C0F9D000BF0C37BD465DF8047B704700BFB2
S2144021D000060E4080B485B000AF78601D491D4BA8
S2144021E01B6B23F070027B6813430B634FF48053E2
S2144021F0FB6007E0FB68002B01D1012323E0FB686E
S214402200013BFB60134B9B6E03F00803002BF1D0A1
S214402210104A104B1B6B23F0030343F00203136377
S2144022204FF48053FB6007E0FB68002B01D101238D
S21440223009E0FB68013BFB60064B9B6E03F008031E
S214402240002BF1D0002318461437BD465DF8047BBA
S214402250704700BF00060E4080B483B000AF786081
S2144022607B68012B05D10749064B9A68064B1343FA
S2144022708B60044B054A1A6000BF0C37BD465DF8BC
S214402280047B704710180E40000010A5080000A5FB
S21440229080B400AF094B5B6903F08003002B07D086
S2144022A0074B9B6E03F08003002B01D0012300E018
S2144022B000231846BD465DF8047B704710180E4054
S2144022C000060E4080B483B000AF78601549154BC9
S2144022D01A6A154B13430B6200BF124B9B6E03F4F6
S2144022E00033002BF9D00F490E4B1A6A0F4B1340A0
S2144022F07A68134343F45C130B6200BF094B9B6E32
S21440230003F40033002BF9D00649064B1A6A084BF3
S214402310134043F45C130B6200BF0C37BD465DF8B8
S214402320047B704700060E40080037008FFFC8FF4A
S214402330FFFFC8FE80B483B000AF786039607B682A
S214402340002B08D01349134B1B6A134A1A40134BF1
S21440235013430B6218E00F490E4B1A6A104B13409A
S2144023603A68120292B21A430E4B13430B6200BFF6
S214402370084B9B6E03F00103002BF9D00549054B33
S2144023801A6A094B13430B6200BF0C37BD465DF813
S214402390047B704700060E40FCFFC8FE0200370173
S2144023A0FCFFC8FF010037000000370180B400AFD3
S2144023B0044B9B6E03F480331846BD465DF8047BA1
S2144023C0704700BF00060E4080B400AF044B4FF08D
S2144023D000529A6200BFBD465DF8047B704700BF5E
S2144023E000060E4080B400AF044B9B6E03F0020321
S2144023F01846BD465DF8047B704700BF00060E4099
S21440240080B400AF044B9B6E03F040031846BD46B5
S2144024105DF8047B704700BF00060E4080B483B072
S21440242000AF78607B683F2B01D901232FE07B68A3
S2144024301F2B13D8194B9A6901217B6801FA03F3C5
S2144024401A4001217B6801FA03F39A421ED0134AD0
S21440245001217B6801FA03F3136117E07B68203B98
S2144024607B600E4BD3F8082101217B6801FA03F309
S2144024701A4001217B6801FA03F39A4206D0074AC4
S21440248001217B6801FA03F3C2F8003100231846A5
S2144024900C37BD465DF8047B704700BF00060E4013
S2144024A080B483B000AFEFF310837B607B68002B73
S2144024B00CBF01230023DBB23B6072B6BFF35F8FD5
S2144024C0044B00221A703B6818460C37BD465DF830
S2144024D0047B70471800402080B483B000AF78601B
S2144024E07B68002B14BF01230023DBB218460C3751
S2144024F0BD465DF8047B704780B582B000AF78601B
S2144025007868074B98470346002B05D0054B0122B9
S2144025101A70BFF35F8F62B600BF0837BD4680BDF6
S214402520D92440001800402080B584B000AF1E4B30
S214402530FB601E4BBB60FA68BB689A420CD007E053
S214402540BB681A1DBA60FA68111DF96012681A60F5
S214402550BB68174A9342F3D3164BBB6004E0BB6894
S2144025601A1DBA6000221A60BB68134A9342F6D31B
S214402570124BFB60124AFB6823F07F039360114BBB
S21440258098477860104A104B1B6843F470031360FA
S214402590BFF34F8FBFF36F8F78680C4B98470C4B49
S2144025A098470C4B9847FEE79C524000000040205E
S2144025B05C1E40205C1E402014214020000040004D
S2144025C000ED00E0A124400088ED00E0F924400042
S2144025D0914340008130400080B400AFFEE70000E9
S2144025E080B400AF524B1B6B03F00303012B14D097
S2144025F0012B02D3022B38D07AE04E4B5B6903F0B6
S2144026008003002B04D04C4B4FF400421A606FE01E
S214402610494B4FF4FA421A606AE0454B1B6A03F096
S2144026208073002B03D0444B444A1A6060E0424B10
S214402630434A1A603E4B1B6A03F07003102B04D0CB
S214402640202B08D0002B0ED00EE03B4B1B685B00C7
S214402650394A136008E0384B1A6813465B00134447
S214402660354A136000E000BF42E0314B1B6A03F07E
S2144026708073002B03D0304B304A1A601CE02E4B40
S2144026802F4A1A602A4B1B6A03F07003102B04D0A3
S214402690202B08D0002B0ED00EE0274B1B685B008B
S2144026A0254A136008E0244B1A6813465B0013441F
S2144026B0214A136000E000BF1D4B1B6B03F0030371
S2144026C0022B14D11A4B9B6A1B0CC3F30A0301332B
S2144026D0194A126802FB03F3174A1360144B9B6AAD
S2144026E0DBB2154A1268B2FBF3F3134A136000BF1D
S2144026F00F4B1B6B03F07003702B08D10E4B1B68FF
S214402700104AA2FB03235B080B4A13600AE0084BFF
S2144027101B6B1B0903F00703074A126822FA03F3F0
S214402720054A136000BFBD465DF8047B704700BF96
S21440273000060E4010180E401C004020001BB7003C
S21440274000093D00ABAAAAAA80B483B000AF786067
S2144027507B681D4A934204D81C4B4FF080621A6037
S2144027602BE07B681A4A934203D8184B194A1A60E2
S21440277023E07B68184A934203D8144B174A1A60E2
S2144027801BE07B68164A934203D8104B154A1A60E2
S21440279013E07B68144A934204D80C4B4FF0042253
S2144027A01A600AE07B68114A934203D8074B104AE6
S2144027B01A6002E0054B0F4A1A6000BF0C37BD4650
S2144027C05DF8047B704700BFBFF35E01000C0E400F
S2144027D07FE7BD02000100043FDB1C04000200044A
S2144027E0FFCE7B0500030004BFC2DA067FB6390879
S2144027F0000500040006000480B483B000AF034622
S214402800FB71094997F907305B09FA7902F01F0214
S214402810012000FA02F241F8232000BF0C37BD46E3
S2144028205DF8047B704700BF00E100E080B483B0F1
S21440283000AF03463960FB7197F90730002B0BDA7F
S2144028400D49FB7903F00F03043B3A68D2B25201BC
S214402850D2B20B441A7609E0084997F907303A682D
S214402860D2B25201D2B20B4483F8002300BF0C37D9
S214402870BD465DF8047B704700ED00E000E100E0F7
S21440288080B483B000AF78607B68072B25D801A260
S21440289052F823F0B5284000BB284000C12840002D
S2144028A0C7284000CB284000CF284000D32840000F
S2144028B0D72840004FF4FA4310E04FF400430DE0B1
S2144028C04FF400430AE0084B08E0084B06E0084B8C
S2144028D004E0074B02E0064B00E0002318460C37A6
S2144028E0BD465DF8047B704700093D0000127A0043
S2144028F0001BB70080B500AF0620054B9847024640
S21440290013469B0013449A001344184680BD00BFEC
S2144029108128400080B500AF024B984703461846D2
S21440292080BD00BFF528400080B400AF074B1B6851
S214402930002B0CBF01230023DBB21A46034B1A6060
S21440294000BFBD465DF8047B704700BF2C1A402090
S21440295090B583B002AF414B9847414B4FF400428D
S2144029605A600A203F4B98470B203E4B98470C2016
S2144029703C4B984710203B4B98470023009300233E
S21440298000224FF480713848384CA047002300930B
S2144029900023002201213648344CA04700230093F0
S2144029A0002300224FF080412F48304CA0470023A0
S2144029B000930023002204212E482C4CA0470022DE
S2144029C04FF080512C482D4B984701224FF08051B4
S2144029D029482B4B984700224FF000412248274B6E
S2144029E0984701224FF000411F48254B9847002248
S2144029F04FF400211E48214B984701224FF40021F6
S214402A001B481F4B984700230093002300224FF09B
S214402A1080411948154CA04709234FF400624FF0F7
S214402A2020511348174CA047174B009350234FF4A0
S214402A3000620A210E48154CA04704210A20144B78
S214402A4098470A20134B98474FF400610848124BAA
S214402A50984700BF0437BD4690BD00BF05164000EE
S214402A6050180E401D24400000120E40891D4000A4
S214402A70000E0E4000100E4000140E40091D40008F
S214402A804D1B4000ED1D40002929400041204000DC
S214402A902D284000F9274000251F4000F0B587B09C
S214402AA000AF7860396012E00121A648A64B9847EF
S214402AB04FF08041A548A44B98470421A448A24B18
S214402AC09847A44B10220021A348A44CA047A44BEF
S214402AD01B68012BE8D07B68002B4CD19D4B102205
S214402AE00021A0489D4CA0474FF080419E48964B01
S214402AF098473B68002B26D03B681D464FEAE57654
S214402B009A4B984703464FF0000403FB06F105FB3B
S214402B1004F20A44A5FB03342244144641F22B71C6
S214402B204FF000025D1844EB020628463146904CB2
S214402B3041F22C724FF00003A04703460C4618465D
S214402B408C4B9847F9E0894B984703464FF0000472
S214402B5089494FF000025D1844EB0206284631468C
S214402B60834C864A4FF00003A04703460C4618465F
S214402B70804B9847E1E007F108030A221946786837
S214402B807F4B9847734B32220A217648734CA047B6
S214402B9007F108006F4B10223221704CA0477B682B
S214402BA0B3F5AF7F04DA01216648674B98470EE0DD
S214402BB07B6840F22522934205DC4FF08041634813
S214402BC0614B984703E0042161485F4B98476D4A44
S214402BD07B6892FBF3F33B6100237B6194E04FF00C
S214402BE080416148684B98473B690133022B28D99E
S214402BF03B69002B00DA01335B101D464FEAE57651
S214402C005A4B984703464FF0000403FB06F105FB7A
S214402C1004F20A44A5FB03342244144656494FF0B6
S214402C2000025D1844EB020628463146504C534A93
S214402C304FF00003A04703460C4618464D4B9847B6
S214402C4016E04A4B984703464FF000044A494FF077
S214402C5000025D1844EB020628463146444C474A7B
S214402C604FF00003A04703460C461846414B984792
S214402C704FF080413C48344B98473B690133022B28
S214402C8028D93B69002B00DA01335B101D464FEA1A
S214402C90E576364B984703464FF0000403FB06F1B3
S214402CA005FB04F20A44A5FB033422441446324989
S214402CB04FF000025D1844EB0206284631462C4C85
S214402CC02E4A4FF00003A04703460C461846294BB1
S214402CD0984716E0254B984703464FF00004264990
S214402CE04FF000025D1844EB020628463146204C61
S214402CF0224A4FF00003A04703460C4618461D4B99
S214402D0098477B6901337B613B684FF47A7202FBDC
S214402D1003F23B6992FBF3F27B699A423FF75FAF5F
S214402D2001210848184B98474FF080410748164BFA
S214402D30984704210648144B984700BF1C37BD46A9
S214402D40F0BD00BF000E0E40951B400000120E4026
S214402D5000100E400C004020EC5140004D08400052
S214402D602C1A4020FC51400000140E40152940000B
S214402D70F93F400001004020DF835A00E0835A00BC
S214402D801144400040420F00791B4000B0B483B06D
S214402D9000AF7860114B1B68002B03D10F4B03220A
S214402DA01A6004E00D4B1B68013B0C4A13600B4B4A
S214402DB01A68796878681346DB009B1A9B000344C0
S214402DC001F170041D460FCD0FC495E8070084E856
S214402DD0070000BF0C37BD46B0BC704720004020FF
S214402DE0B0B483B000AF7860114B1B68032B03D19F
S214402DF00F4B00221A6004E00D4B1B6801330C4A4F
S214402E0013600B4B1A68796878681346DB009B1A88
S214402E109B00034401F170041D460FCD0FC495E896
S214402E20070084E8070000BF0C37BD46B0BC7047BB
S214402E30200040200000000084B02DE9F0478AB012
S214402E4000AF07F1480686E80F006B469A463B6E91
S214402E50FB61FE69731EBB6133461A464FF00003A2
S214402E604FEA431949EAD2694FEA421833461A46AE
S214402E704FF000035D0145EAD265540133469B009E
S214402E8003330733DB08DB00ADEB030D6B46033340
S214402E909B089B007B617B69B96CFA6918466A4B54
S214402EA09847FB6C3B6133469B00DB08FB60674AF8
S214402EB03B6992FBF3F3BB6000237B6000237B629D
S214402EC000233B62A8E03B6A5A1C7B6953F82230D9
S214402ED07B607B68002B05DDBA687B6892FBF3F36A
S214402EE07B621CE07B68002B19DA7B68002BB8BF3E
S214402EF05B42BA6892FBF3F37B62554B786A98471D
S214402F00544C4FF00002544BA04703460C4619461B
S214402F102246524B08461146984703467B627B69D9
S214402F203A6A53F822504A4B786A9847494C42A32B
S214402F30D3E90023A04703460C4619462246474B92
S214402F40084611469847034619462846444B984734
S214402F503F4B786A98473F4C39A3D3E90023A047B4
S214402F6003460C46184621463E4C4FF000024FF0B2
S214402F700003A0470346002B34D1354B786A984768
S214402F80344C2FA3D3E90023A04703460C461946EA
S214402F902246354B08461146984705460E46334B63
S214402FA0984703464FF0000403FB06F105FB04F286
S214402FB00A44A5FB03342244144641F22B714FF0D9
S214402FC000025D1844EB020628463146284C41F282
S214402FD02C724FF00003A04703460C461846254B7C
S214402FE0984716E0214B984703464FF00004224985
S214402FF04FF000025D1844EB0206284631461C4C52
S2144030001E4A4FF00003A04703460C461846194B8D
S21440301098473B6A02333B62FB685A003B6A9A42D7
S2144030203FF751AFD54600BF2837BD46BDE8F0470D
S21440303004B07047AFF30080CDCCCCCCCCCCEC3FCA
S2144030409A9999999999B93F1544400080A90300E7
S214403050A9394000753A40000000F83FA93F4000BB
S2144030609D2A4000453F4000294040001529400029
S214403070F93F400001004020DF835A00E0835A00B9
S2144030802DE9F04FE9B004AFBF4B9847BF4B984788
S214403090BF4B9847BF4B9847BF4B10223221BF4883
S2144030A0BF4CA047BF4B9847034619464FF0000217
S2144030B00B461446660146EAD3665D012B46344607
S2144030C05B1A64EB02044FEA840949EA93794FEAB3
S2144030D0830843464C465B1844EB02044FEAC40B55
S2144030E04BEA537B4FEAC30A53465C461946224690
S2144030F041F22B734FF00004CD1842EB04062846ED
S2144031003146A94C41F22C724FF00003A0470346CB
S2144031100C461846A54B984707F5BA730833A4499A
S2144031201846A44B9847A44B1B68C7F87831A34B66
S214403130C7F874314FF48273C7F88C3107F5AC7317
S21440314008339F4918469B4B98479E4B1B68C7F8C9
S2144031505C319D4BC7F858314FF40F73C7F8703148
S21440316007F59E73083399491846924B9847984BF3
S2144031701B68C7F84031974BC7F83C3140F2822372
S214403180C7F8543107F59073083393491846894B6E
S2144031909847924B1B68C7F82431914BC7F82031AB
S2144031A0AC23C7F8383107F1940507F5BA740FCC4D
S2144031B00FC594E8070085E8070007F1B00507F556
S2144031C0AC740FCC0FC594E8070085E8070007F1FC
S2144031D0CC0507F59E740FCC0FC594E8070085E82C
S2144031E0070007F1E80507F590740FCC0FC594E883
S2144031F0070085E807007B4B1A681346DB009B1ADE
S2144032009B0007F5C8721344FC3B07F582751C46C5
S2144032100FCC0FC594E8070085E8070007F1940334
S21440322003F178005C4B102200215D4CA0474FF420
S21440323080716D486D4B984701216D486B4B9847A0
S2144032404FF080416848694B984704216948674B6E
S21440325098474FF080524FF020516748674B984749
S2144032600346002B40F0DF8007F194031846644B7A
S2144032709847494B102200216248494CA047494B89
S2144032809847034619464FF000020B461446600125
S214403290C7F88C00D7F88C0040EAD360C7F88C009B
S2144032A05B01C7F88830D7E922345B1A64EB020426
S2144032B0A000C7F88400D7F8840040EA9370C7F8A7
S2144032C084009B00C7F88030D7E920345B1844EB75
S2144032D00204A200FA67FA6F42EA9372FA679B000A
S2144032E0BB67D7E91E341946224641F22B734FF08E
S2144032F00004CD1842EB0406284631462A4C41F2DB
S2144033002C724FF00003A04703460C461846274B46
S2144033109847012136483C4B9847224B98470346EE
S21440332019464FF000020B46144660017867786FE6
S21440333040EAD36078675B013B67D7E91C345B1A89
S21440334064EB0204A000F866F86E40EA9370F866F4
S2144033509B00BB66D7E91A345B1844EB0204A20014
S2144033607A667A6E42EA93727A669B003B66D7E943
S21440337018341946224641F22B734FF00004CD18FC
S21440338042EB040642E000BF05164000C91A400062
S21440339051294000510940000C0040200C5240008A
S2144033A04D08400015294000F93F400001004020EC
S2144033B02800402049454000240040203800402056
S2144033C04C044020480440205C044020500D4020DF
S2144033D04C0D4020600D40206C1740206817402060
S2144033E07C1740202000402000120E40791B4000F1
S2144033F0000E0E4000100E4000140E40B11B400060
S2144034008D2D400014524000951B40002846314602
S214403410AD4C41F22C724FF00003A04703460C46D9
S2144034201846AA4B98474FF000424FF02051A84804
S214403430A84B98470346002B40F0A6804FF08041AB
S214403440A348A54B9847A54B10220021A448A54C5D
S214403450A047A54B9847034619464FF000020B4637
S21440346014466001F865F86D40EAD360F8655B0184
S214403470BB65D7E916345B1A64EB0204A000786596
S214403480786D40EA937078659B003B65D7E91434C5
S2144034905B1844EB0204A200FA64FA6C42EA9372A8
S2144034A0FA649B00BB64D7E912341946224641F2BF
S2144034B02B734FF00004CD1842EB040628463146E5
S2144034C0814C41F22C724FF00003A04703460C4655
S2144034D018467E4B98474FF080417D487E4B984734
S2144034E0814B9847034619464FF000020B46144658
S2144034F060017864786C40EAD36078645B013B6432
S214403500D7E910345B1A64EB0204A000F863F86B4A
S21440351040EA9370F8639B00BB63D7E90E345B18B0
S21440352044EB0204A2007A637A6B42EA93727A63AF
S2144035309B003B63D7E90C341946224641F22B7375
S2144035404FF00004CD1842EB0406284631465E4C48
S21440355041F22C724FF00003A04703460C46184633
S2144035605A4B98475D4B1022002160485D4CA0475F
S2144035706C4607F58A7393E8070084E8070007F56A
S21440358082730FCB5A4CA0474FF400224FF0205185
S2144035905848504B98470346002B7FF43FAE07F100
S2144035A094031846544B98474C4B102200215348DE
S2144035B04C4CA0474C4B9847034619464FF00002E8
S2144035C00B4614466001F862F86A40EAD360F86237
S2144035D05B01BB62D7E90A345B1A64EB0204A000C5
S2144035E07862786A40EA937078629B003B62D7E9DB
S2144035F008345B1844EB0204A200FA61FA6942EA16
S2144036009372FA619B00BB61D7E90634194622469D
S21440361041F22B734FF00004CD1842EB04062846C7
S2144036203146294C41F22C724FF00003A047034626
S2144036300C461846254B984704213148264B984758
S214403640294B9847034619464FF000020B4614464E
S21440365060017861786940EAD36078615B013B61DC
S214403660D7E904345B1A64EB0204A000F860F868FB
S21440367040EA9370F8609B00BB60D7E902345B1861
S21440368044EB0204A2007A607A6842EA93727A6057
S2144036909B003B60D7E900341946224641F22B7323
S2144036A04FF00004CD1842EB040628463146064C3F
S2144036B041F22C724FF00003A04703460C461846D2
S2144036C0024B9847AAE500BFF93F40000100402062
S2144036D000120E40B11B4000951B40000C004020DD
S2144036E0245240004D08400015294000FC5140003F
S2144036F0392E4000000E0E40E12D4000345240006E
S21440370000100E4081F0004102E000BF83F000430D
S21440371030B54FEA41044FEA430594EA050F08BF27
S21440372090EA020F1FBF54EA000C55EA020C7FEAEB
S214403730645C7FEA655C00F0E2804FEA5454D4EB68
S2144037405555B8BF6D420CDD2C4480EA020281EA32
S214403750030382EA000083EA010180EA020281EA6A
S2144037600303362D88BF30BD11F0004F4FEA0131BC
S2144037704FF4801C4CEA113102D0404261EB4101CB
S21440378013F0004F4FEA03334CEA133302D0524251
S21440379063EB430394EA050F00F0A780A4F101040D
S2144037A0D5F1200E0DDB02FA0EFC22FA05F2801847
S2144037B041F1000103FA0EF2801843FA05F359412D
S2144037C00EE0A5F120050EF1200E012A03FA0EFCAC
S2144037D028BF4CF0020C43FA05F3C01851EBE371D6
S2144037E001F0004507D54FF0000EDCF1000C7EEBF3
S2144037F000006EEB0101B1F5801F1BD3B1F5001F31
S2144038000CD349085FEA30004FEA3C0C04F101044F
S2144038104FEA445212F5800F80F09A80BCF1004F78
S21440382008BF5FEA500C50F1000041EB045141EAFA
S214403830050130BD5FEA4C0C404141EB010111F4FB
S214403840801FA4F10104E9D191F0000F04BF0146A6
S2144038500020B1FA81F308BF2033A3F10B03B3F184
S21440386020020CDA0C3208DD02F1140CC2F10C0214
S21440387001FA0CF021FA02F10CE002F11402D8BF72
S214403880C2F1200C01FA02F120FA0CFCDCBF41EA3E
S2144038900C019040E41AA2BF01EB0451294330BD0D
S2144038A06FEA04041F3C1CDA0C340EDC04F11404EA
S2144038B0C4F1200220FA04F001FA02F340EA0300C1
S2144038C021FA04F345EA030130BDC4F10C04C4F107
S2144038D0200220FA02F001FA04F340EA03002946E7
S2144038E030BD21FA04F0294630BD94F0000F83F431
S2144038F0801306BF81F480110134013D4EE77FEA14
S214403900645C18BF7FEA655C29D094EA050F08BF5F
S21440391090EA020F05D054EA000C04BF1946104640
S21440392030BD91EA030F1EBF0021002030BD5FEA84
S214403930545C05D14000494128BF41F0004130BDAC
S21440394014F580043CBF01F5801130BD01F0004500
S21440395045F0FE4141F470014FF0000030BD7FEA73
S214403960645C1ABF194610467FEA655C1CBF0B466E
S214403970024650EA013406BF52EA033591EA030F85
S21440398041F4002130BD00BF90F0000F04BF00217D
S214403990704730B54FF4806404F132044FF00005B0
S2144039A04FF0000150E700BF90F0000F04BF002129
S2144039B0704730B54FF4806404F1320410F000458F
S2144039C048BF40424FF000013EE700BF42004FEA8A
S2144039D0E2014FEA31014FEA02701FBF12F07F4307
S2144039E093F07F4F81F06051704792F0000F14BF04
S2144039F093F07F4F704730B54FF4607401F0004548
S214403A0021F0004120E700BF50EA010208BF70479E
S214403A1030B54FF000050AE050EA010208BF704793
S214403A2030B511F0004502D5404261EB41014FF4FC
S214403A30806404F132045FEA915C3FF4DCAE4FF000
S214403A4003025FEADC0C18BF03325FEADC0C18BFE7
S214403A50033202EBDC02C2F1200300FA03FC20FA38
S214403A6002F001FA03FE40EA0E0021FA02F1144485
S214403A70C1E600BF70B54FF0FF0C4CF4E06C1CEA9A
S214403A8011541DBF1CEA135594EA0C0F95EA0C0F0F
S214403A9000F0DEF82C4481EA030621EA4C5123EA82
S214403AA04C5350EA013518BF52EA033541F48011B1
S214403AB043F4801338D0A0FB02CE4FF00005E1FB64
S214403AC002E506F00042E0FB03E54FF00006E1FBAE
S214403AD003569CF0000F18BF4EF0010EA4F1FF04F1
S214403AE0B6F5007F64F5407404D25FEA4E0E6D4131
S214403AF046EB060642EAC62141EA55514FEAC52042
S214403B0040EA5E504FEACE2EB4F1FD0C88BFBCF5BD
S214403B10E06F1ED8BEF1004F08BF5FEA500E50F16E
S214403B20000041EB045170BD06F0004646EA010134
S214403B3040EA020081EA0301B4EB5C04C2BFD4EB66
S214403B400C0541EA045170BD41F480114FF0000E5F
S214403B50013C00F3AB8014F1360FDEBF002001F0CD
S214403B60004170BDC4F10004203C35DA0C341BDC47
S214403B7004F11404C4F1200500FA05F320FA04F019
S214403B8001FA05F240EA020001F0004221F000414D
S214403B9010EBD37021FA04F642EB06015EEA430EC0
S214403BA008BF20EAD37070BDC4F10C04C4F12005F0
S214403BB000FA04F320FA05F001FA04F240EA0200A3
S214403BC001F0004110EBD37041F100015EEA430E74
S214403BD008BF20EAD37070BDC4F1200500FA05F294
S214403BE04EEA020E20FA04F301FA05F243EA020313
S214403BF021FA04F001F0004121FA04F220EA020022
S214403C0000EBD3705EEA430E08BF20EAD37070BD67
S214403C1094F0000F0FD101F00046400041EB010147
S214403C2011F4801F08BF013CF7D041EA060195F029
S214403C30000F18BF704703F00046520043EB0303E3
S214403C4013F4801F08BF013DF7D043EA06037047D0
S214403C5094EA0C0F0CEA135518BF95EA0C0F0CD0DB
S214403C6050EA410618BF52EA4306D1D181EA030121
S214403C7001F000414FF0000070BD50EA410606BF1B
S214403C801046194652EA430619D094EA0C0F02D160
S214403C9050EA013613D195EA0C0F05D152EA0336A5
S214403CA01CBF104619460AD181EA030101F00041C3
S214403CB041F0FE4141F470014FF0000070BD41F00C
S214403CC0FE4141F4780170BD70B54FF0FF0C4CF4E6
S214403CD0E06C1CEA11541DBF1CEA135594EA0C0F05
S214403CE095EA0C0F00F0A7F8A4EB050481EA030E52
S214403CF052EA03354FEA013100F088804FEA033339
S214403D004FF0805545EA131343EA12634FEA022206
S214403D1045EA111545EA10654FEA00260EF00041C7
S214403D209D4208BF964244F1FD0404F5407402D219
S214403D305B084FEA3202B61A65EB03055B084FEAAA
S214403D4032024FF480104FF4002CB6EB020E75EBA7
S214403D50030E22BFB61A754640EA0C005B084FEACF
S214403D603202B6EB020E75EB030E22BFB61A75464C
S214403D7040EA5C005B084FEA3202B6EB020E75EB97
S214403D80030E22BFB61A754640EA9C005B084FEA0F
S214403D903202B6EB020E75EB030E22BFB61A75461C
S214403DA040EADC0055EA060E18D04FEA051545EA0B
S214403DB016754FEA06164FEAC30343EA52734FEAB4
S214403DC0C2025FEA1C1CC0D111F4801F0BD141EA2D
S214403DD000014FF000004FF0004CB6E711F4801F92
S214403DE004BF01430020B4F1FD0C88BFBCF5E06F72
S214403DF03FF6AFAEB5EB030C04BFB6EB020C5FEA82
S214403E00500C50F1000041EB045170BD0EF0004ED6
S214403E104EEA113114EB5C04C2BFD4EB0C0541EA08
S214403E20045170BD41F480114FF0000E013C90E605
S214403E3045EA060E8DE60CEA135594EA0C0F08BFC9
S214403E4095EA0C0F3FF43BAF94EA0C0F0AD150EAC8
S214403E5001347FF434AF95EA0C0F7FF425AF10465B
S214403E6019462CE795EA0C0F06D152EA03353FF483
S214403E70FDAE1046194622E750EA410618BF52EA00
S214403E8043067FF4C5AE50EA41047FF40DAF52EAD4
S214403E9043057FF4EBAE12E74FF0FF3C06E000BF71
S214403EA04FF0010C02E000BF4FF0010C4DF804CD7E
S214403EB04FEA410C7FEA6C5C4FEA430C18BF7FEA3E
S214403EC06C5C1BD001B050EA410C0CBF52EA430C6C
S214403ED091EA030F02BF90EA020F0020704710F1EC
S214403EE0000F91EA030F58BF994208BF90422CBF7B
S214403EF0D8176FEAE37040F0010070474FEA410C74
S214403F007FEA6C5C02D150EA013C07D14FEA430C91
S214403F107FEA6C5CD6D152EA033CD3D05DF8040B02
S214403F20704700BF8446104662468C461946634634
S214403F3000E000BF01B5FFF7B7FF002848BF10F10B
S214403F40000F01BD4DF808EDFFF7F4FF0CBF012050
S214403F5000205DF808FB00BF4DF808EDFFF7EAFFCC
S214403F6034BF012000205DF808FB00BF4DF808ED87
S214403F70FFF7E0FF94BF012000205DF808FB00BF7C
S214403F804DF808EDFFF7CEFF94BF012000205DF806
S214403F9008FB00BF4DF808EDFFF7C4FF34BF012013
S214403FA000205DF808FB00BF4FEA410212F5001200
S214403FB015D211D56FF47873B3EB625212D94FEA2B
S214403FC0C12343F0004343EA505311F0004F23FA15
S214403FD002F018BF404270474FF00000704750EA6A
S214403FE0013005D111F0004008BF6FF00040704727
S214403FF04FF00000704700BF53B94AB9002908BFC8
S21440400000281CBF4FF0FF314FF0FF3000F09EB944
S214404010ADF1080C6DE904CE00F02AF8DDF804E0B6
S214404020DDE9022304B07047D0B500220E4B0646A9
S2144040300F46FFF71FFD00F08BF90446FFF7A4FC80
S21440404000220A4BFFF716FD02460B46304639461D
S214404050FFF75CFB00F07CF92346002242EA0002B0
S21440406010461946D0BD00BF0000F03D0000F041AC
S2144040702DE9F0478C460D460446089E002B51D14C
S2144040808A4217466DD9B2FA82FEBEF1000F0BD0B7
S214404090CEF1200C01FA0EF520FA0CFC02FA0EF7CF
S2144040A04CEA050C00FA0EF44FEA174A250CBCFB06
S2144040B0FAF81FFA87F90AFB18CC45EA0C4508FBC4
S2144040C009F3AB420AD9ED1908F1FF3280F023819B
S2144040D0AB4240F22081A8F102083D44ED1AA4B25A
S2144040E0B5FBFAF00AFB105544EA054400FB09F913
S2144040F0A14509D9E41900F1FF3380F00A81A145B2
S21440410040F2078102383C44A4EB090440EA0840E8
S2144041100021002E61D024FA0EF400233460736030
S214404120BDE8F0878B4207D9002E54D0002186E8A0
S21440413021000846BDE8F087B3FA83F1002940F035
S2144041408E80AB4202D3824200F2FA80841A65EB3C
S21440415003050120AC46002E3FD086E81010BDE88F
S214404160F08712B90127B7FBF2F7B7FA87FEBEF120
S214404170000F34D1EB1B3A0C1FFA87FC0121B3FB2E
S214404180F2F8250C02FB183345EA03450CFB08F30E
S214404190AB4207D9ED1908F1FF3002D2AB4200F22C
S2144041A0D1808046ED1AA3B2B5FBF2F002FB105563
S2144041B043EA05440CFB00FCA44507D9E41900F18A
S2144041C0FF3302D2A44500F2B8801846A4EB0C0494
S2144041D040EA08409DE731463046BDE8F087CEF1DC
S2144041E0200405FA0EF307FA0EF720FA04F83A0C04
S2144041F025FA04F448EA0308B4FBF2F14FEA1845FE
S21440420002FB11441FFA87FC45EA044501FB0CF308
S214404210AB4200FA0EF409D9ED1901F1FF3080F0F7
S2144042208A80AB4240F2878002393D44EB1A1FFA3F
S21440423088F5B3FBF2F002FB103345EA034500FB7A
S2144042400CF3AB4207D9ED1900F1FF386FD2AB4201
S2144042506DD902383D44EB1A40EA01418FE7C1F17F
S214404260200722FA07F88B4005FA01F448EA0303D0
S21440427020FA07FE4FEA134CFD404EEA040EB5FB0B
S214404280FCF94FEA1E440CFB19551FFA83F844EA22
S214404290054509FB08F4AC4202FA01F200FA01FABD
S2144042A008D9ED1809F1FF3043D2AC4241D9A9F103
S2144042B002091D442D1B1FFA8EFEB5FBFCF00CFBBD
S2144042C010554EEA054400FB08F8A04507D9E41807
S2144042D000F1FF3529D2A04527D902381C4440EAD0
S2144042E00940A4EB0804A0FB02894C45C6464D464F
S2144042F015D312D056B1BAEB0E0364EB050404FA9C
S21440430007F7CB401F43CC40376074600021BDE8C0
S214404310F0871846F8E69046E0E6C245EAD2B8EBA3
S214404320020E69EB03050138E4E72846D7E7404626
S21440433091E78146BEE7014678E702383C4445E7C8
S214404340084608E7A8F102083D442BE7704700BF3F
S2144043504A0011D212F5001211D20DD56FF47873BF
S214404360B3EB62520ED44FEAC12343F0004343EA14
S214404370505323FA02F070474FF00000704750EA5F
S214404380013002D14FF0FF3070474FF000007047C9
S21440439070B50F4E0F4D761BB61018BF002405D0D3
S2144043A0013455F8043B9847A642F9D10A4E0B4DC6
S2144043B0761B00F05DFFB61018BF002406D001340F
S2144043C055F8043B9847A642F9D170BD70BD00BF72
S2144043D07C5240007C524000845240007C52400058
S2144043E0931E222B10D80A2A10B506D000230C465E
S2144043F0194400F007F9204610BD0028F6DA2D23B0
S2144044000B7040420123F2E700200870704700BF5F
S214404410FFF7E6BF844641EA000313F003036DD17D
S214404420403A41D351F8043B40F8043B51F8043B32
S21440443040F8043B51F8043B40F8043B51F8043B39
S21440444040F8043B51F8043B40F8043B51F8043B29
S21440445040F8043B51F8043B40F8043B51F8043B19
S21440446040F8043B51F8043B40F8043B51F8043B09
S21440447040F8043B51F8043B40F8043B51F8043BF9
S21440448040F8043B51F8043B40F8043B51F8043BE9
S21440449040F8043B51F8043B40F8043B51F8043BD9
S2144044A040F8043B403ABDD2303211D351F8043B79
S2144044B040F8043B51F8043B40F8043B51F8043BB9
S2144044C040F8043B51F8043B40F8043B103AEDD228
S2144044D00C3205D351F8043B40F8043B043AF9D279
S2144044E0043208D0D2071CBF11F8013B00F8013B4C
S2144044F001D30B8803806046704700BF082A13D359
S2144045008B078DD010F003038AD0C3F10403D21A70
S214404510DB071CBF11F8013B00F8013B80D331F8A4
S214404520023B20F8023B7BE7043AD9D3013A11F824
S214404530013B00F8013BF9D20B7803704B7843708F
S2144045408B7883706046704780EA0102844612F09A
S214404550030F4FD111F0030F32D14DF8044D11F037
S214404560040F51F8043B0BD0A3F101329A4312F0EA
S214404570803F04BF4CF8043B51F8043B16D100BFC3
S21440458051F8044BA3F101329A4312F0803FA4F154
S21440459001320BD14CF8043BA24312F0803F04BFDB
S2144045A051F8043B4CF8044BEAD023460CF8013B48
S2144045B013F0FF0F4FEA3323F8D15DF8044B7047F2
S2144045C011F0010F06D011F8012B0CF8012B002A30
S2144045D008BF704711F0020FBFD031F8022B12F01F
S2144045E0FF0F16BF2CF8022B8CF8002012F47F4FDA
S2144045F0B3D1704711F8012B0CF8012B002AF9D1E2
S214404600704700BFF0B5DFF878E0164604460F4620
S214404610BEE80F008BB06D460FC5BEE80F000FC555
S2144046209EE80300B31E45F8040B222B297022D8BF
S2144046307D1E2846002200E01A46B4FBF6F10AAB7F
S21440464006FB114423440C4613F8283C00F8013F6F
S214404650531C0029F0D1F954BB184AB11978687830
S21440466005F8011F0134111B8C4203F80109F5DBE4
S21440467038460BB0F0BD002038700BB0F0BD00BF20
S21440468048524000024B13B1024800F005B870474C
S21440469000000000A5464000002301461A46184682
S2144046A000F01EB838B50A4C0A4D641BA4100AD058
S2144046B004F18043013B05EB8305013C55F8043982
S2144046C09847002CF9D1BDE8384000F0DBBD00BF6C
S2144046D09452400090524000704700BF704700BF61
S2144046E02DE9F8432C4D0646286898460F469146D5
S2144046F0FFF7F2FF294B1C68D4F84831002B3ED018
S2144047005A681F2A1CDC02F1010E76B103EB8201C7
S2144047100124C1F88890D3F8880194402043022EA3
S214404720C3F88801C1F8088123D00232C3F804E0F8
S214404730286843F82270FFF7D1FF0020BDE8F883D1
S214404740174B0BB34FF4C870AFF300800346D8B195
S214404750D4F848210260002141600A46C4F8480166
S2144047604FF0010EC0F88811C0F88C11002EDCD036
S214404770CCE7D3F88C110C43C3F88C41D5E704F54D
S214404780A673C4F84831BBE72868FFF7A7FF4FF089
S214404790FF30BDE8F88300BF581E4020445240001A
S2144047A000000000000000000000000000000000C4
S2144047B000000000000000000000000000000000B4
S2144047C00000000030003000300030003000300084
S2144047D00000300030000000000000000000000034
S2144047E06C006C006C006C000000000000000000D4
S2144047F0000000000000000000000000000028004C
S21440480028007C00280028007C00280028000000A3
S214404810000000000000000010003C0040002000A7
S214404820100008000400780010000000000000009F
S2144048300000000000007C00A400A80050002800F3
S21440484054009400880000000000000000000000B3
S21440485060009000900090006000940088008800FF
S2144048607000000000000000000000001000100073
S21440487010000000000000000000000000000000E3
S214404880000000000000000008001000200020008B
S214404890200020002000200010000800000000003B
S2144048A00000000020001000080008000800080073
S2144048B0080008001000200000000000000028004B
S2144048C010007C00100028000000000000000000DF
S2144048D00000000000000000000000000000000093
S2144048E0100010001000FE00100010001000000025
S2144048F00000000000000000000000000000000073
S2144049000000000000000000100030002000000002
S21440491000000000000000000000000000007C00D6
S2144049200000000000000000000000000000000042
S2144049300000000000000000000000000000300002
S21440494030000000000000000000000000000800EA
S214404950080010001000200020004000400000002A
S21440496000000000000000000000780084008C007A
S2144049709400A400C40084007800000000000000FA
S2144049800000000000001000300050001000100032
S214404990100010007C000000000000000000000036
S2144049A000007000880008001000200040008000D2
S2144049B0F80000000000000000000000000070004A
S2144049C088000800300008000800880070000000DA
S2144049D0000000000000000000000800180028004A
S2144049E048008800FC0008000800000000000000A6
S2144049F0000000000000780080008000F000080002
S214404A0008000800F0000000000000000000000061
S214404A100000300040008000F000880088008800D9
S214404A207000000000000000000000000000F800D9
S214404A300800100010002000200040004000000049
S214404A4000000000000000000000700088008800A1
S214404A507000880088008800700000000000000099
S214404A600000000000007000880088008800780081
S214404A700800100060000000000000000000000079
S214404A800000000000003000300000000000300051
S214404A9030000000000000000000000000000000A1
S214404AA000003000300000000000300030006000A1
S214404AB04000000000000000000000000800100059
S214404AC02000400020001000080000000000000009
S214404AD00000000000000000000000007C00000015
S214404AE07C00000000000000000000000000000005
S214404AF000000000400020001000080010002000C9
S214404B0040000000000000000000000000003000F0
S214404B1048000800100020000000000020000000B0
S214404B200000000000000000000000003C004200C2
S214404B309A00AA00AA00BE0080007800000000008C
S214404B4000000000000010002800280044007C0000
S214404B504400440044000000000000000000000044
S214404B600000F80084008400F8008400840084007C
S214404B70F8000000000000000000000000003C00BC
S214404B804000800080008000800040003C00000024
S214404B9000000000000000000000F00088008400D4
S214404BA08400840084008800F000000000000000BC
S214404BB0000000000000F80080008000F000800048
S214404BC080008000F80000000000000000000000A8
S214404BD00000F80080008000F80080008000800020
S214404BE080000000000000000000000000003C00C4
S214404BF04000800080009C00840044003800000094
S214404C0000000000000000000000880088008800C7
S214404C10F800880088008800880000000000000037
S214404C20000000000000F8002000200020002000C7
S214404C3020002000F80000000000000000000000F7
S214404C400000F800080008000800080008000800F7
S214404C50F00000000000000000000000000084009B
S214404C6088009000A000D0008800840084000000E7
S214404C70000000000000000000008000800080006F
S214404C808000800080008000FC00000000000000E3
S214404C900000000000008400CC00CC00B400B4004B
S214404CA08400840084000000000000000000000033
S214404CB000008400C400C400A400A4009400940033
S214404CC08C0000000000000000000000000078009B
S214404CD084008400840084008400840078000000FF
S214404CE000000000000000000000F800840084007F
S214404CF08400F80080008000800000000000000073
S214404D0000000000000078008400840084008400D6
S214404D108400840078002000180000000000000096
S214404D200000F800840084008400F80088008400B6
S214404D3084000000000000000000000000007C002E
S214404D40800080006000180004000400F8000000A6
S214404D5000000000000000000000F80020002000D6
S214404D60200020002000200020000000000000005E
S214404D70000000000000840084008400840084005A
S214404D80840084007800000000000000000000005E
S214404D90000084008400840048004800480030003A
S214404DA03000000000000000000000000000880006
S214404DB0A800A800A800A800A800500050000000C6
S214404DC0000000000000000000008800880050003E
S214404DD020002000500088008800000000000000EE
S214404DE00000000000008800880088005000500046
S214404DF0200020002000000000000000000000000E
S214404E000000FC0004000800100020004000800065
S214404E10FC000000000000000000000070004000A1
S214404E20400040004000400040004000400040003D
S214404E3070000000000000004000400020002000FD
S214404E4020001000100010000800080000000000BD
S214404E5000000000380008000800080008000800AD
S214404E6008000800080008003800000000000000A5
S214404E701000280044000000000000000000000071
S214404E8000000000000000000000000000000000DD
S214404E900000000000000000000000003800000095
S214404EA0000000000000000000002000100000008D
S214404EB000000000000000000000000000000000AD
S214404EC0000000000000000000007000080008001D
S214404ED0780088007C000000000000000000000011
S214404EE0800080008000F8008400840084008400F5
S214404EF0F800000000000000000000000000000075
S214404F00000078008000800080008000780000006C
S214404F1000000000000000000400040004007C00C4
S214404F208400840084008C007400000000000000B0
S214404F300000000000000000000078008400FC0034
S214404F40800080007C0000000000000000000000A0
S214404F501C0020002000FC00200020002000200034
S214404F60FC00000000000000000000000000000000
S214404F7000007C0084008400840084007C000400E0
S214404F807800000000000000800080008000B8002C
S214404F90C4008400840084008400000000000000F8
S214404FA0000000000000100000007000100010001C
S214404FB0100010007C000000000000000000000010
S214404FC000000800000078000800080008000800FC
S214404FD00800080008007000000000008000800004
S214404FE0800088009000A000D00088008800000064
S214404FF00000000000000000E0002000200020002C
S2144050002000200020002000F800000000000000E3
S21440501000000000000000000000A400FC00A40007
S214405020A400A400A400000000000000000000004F
S214405030000000000000B800C40084008400840023
S2144050408400000000000000000000000000000097
S214405050000078008400840084008400780000000B
S2144050600000000000000000000000000000B80043
S214405070C400840084008400F800800080000000A3
S214405080000000000000000000007C008400840057
S214405090840084007C00040004000000000000003F
S2144050A0000000000000D8006000400040004000C3
S2144050B0F0000000000000000000000000000000BB
S2144050C0000078008000400030000800F00000003B
S2144050D00000000000000000000000002000FC006F
S2144050E020002000200020001C00000000000000DF
S2144050F000000000000000000000880088008800D3
S214405100880088007C0000000000000000000000CE
S214405110000000000000840084008400480048002E
S214405120300000000000000000000000000000000A
S21440513000008800A800A800A800A80050000000B2
S2144051400000000000000000000000000000880092
S21440515050002000200050008800000000000000A2
S21440516000000000000000000000840084004800AA
S2144051704800300010002000400000000000000002
S214405180000000000000F80008001000200040006A
S214405190F8000000000000000000000010002000A2
S2144051A020001000200020001000200020001000EA
S2144051B0000000000000000010001000100010006A
S2144051C0000000001000100010001000000000005A
S2144051D0000000002000100010002000100010000A
S2144051E0200010001000200000000000202020209A
S2144051F050415553452020202000000020202020EC
S2144052002020202020202020200000004150532035
S21440521031000000202020204241434B2020202007
S2144052202000000020202020504C415920202020E3
S21440523020000000202020204E45585420202020CA
S21440524020000000301A40203031323334353637B3
S21440525038396162636465666768696A6B6C6D6EEF
S2144052606F707172737475767778797A0000000083
S214405270F8B500BFF8BC08BC9E467047854640005F
S21440528065014000F8B500BFF8BC08BC9E467047B4
S2084052904101400053
S20C405294DCEDFF7F0100000085
S21440529CBFF35F8F0138FBD1704700000000000061
S2144052ACA44740000A0E207D0100000000093D0086
S2144052BC010000005500000047616D654F6654685C
S2144052CC726F6E65730000008801000008000000D5
S2144052DC0601000008000000370100001000000026
S2144052EC5D0100001000000088010000080000006E
S2144052FC0601000008000000370100001000000006
S21440530C5D0100001000000088010000080000004D
S21440531C06010000080000003701000010000000E5
S21440532C5D0100001000000088010000080000002D
S21440533C06010000080000003701000010000000C5
S21440534C5D0100001000000088010000080000000D
S21440535C06010000080000004A0100001000000092
S21440536C5D010000100000008801000008000000ED
S21440537C06010000080000004A0100001000000072
S21440538C5D010000100000008801000008000000CD
S21440539C06010000080000004A0100001000000052
S2144053AC5D010000100000008801000008000000AD
S2144053BC06010000080000004A0100001000000032
S2144053CC5D0100001000000088010000FCFFFFFF9C
S2144053DC06010000FCFFFFFF370100001000000034
S2144053EC5D01000010000000880100000400000071
S2144053FC0601000004000000370100001000000009
S21440540C5D0100001000000026010000FFFFFFFFBA
S21440541C5D010000FCFFFFFFE9000000FCFFFFFF02
S21440542C37010000100000002601000010000000AC
S21440543C5D01000004000000E9000000FCFFFFFFD7
S21440544C370100001000000026010000100000008C
S21440545C06010000FFFFFFFF88010000FCFFFFFF76
S21440546C06010000FCFFFFFF3701000010000000A3
S21440547C5D010000100000008801000004000000E0
S21440548C0601000004000000370100001000000078
S21440549C5D0100001000000026010000FFFFFFFF2A
S2144054AC5D010000FCFFFFFFE9000000FCFFFFFF72
S2144054BC370100001000000026010000100000001C
S2144054CC5D01000004000000E9000000FCFFFFFF47
S2144054DC37010000100000002601000010000000FC
S2144054EC06010000FFFFFFFF88010000FCFFFFFFE6
S2144054FC06010000FCFFFFFF370100001000000013
S21440550C5D0100001000000088010000040000004F
S21440551C06010000040000003701000010000000E7
S21440552C5D0100001000000026010000FEFFFFFF9A
S21440553C5D010000FCFFFFFFE9000000FCFFFFFFE1
S21440554C26010000F8FFFFFF37010000F8FFFFFFC1
S21440555C26010000F8FFFFFFE9000000F8FFFFFF00
S21440556C06010000FFFFFFFF0B020000FEFFFFFFDF
S21440557CD2010000FEFFFFFF06010000FEFFFFFF0A
S21440558C88010000FEFFFFFF37010000FEFFFFFF13
S21440559C37010000FCFFFFFF5D010000FCFFFFFF32
S2144055AC88010000FFFFFFFF0B020000FEFFFFFF1D
S2144055BCD2010000FEFFFFFF06010000FEFFFFFFCA
S2144055CC88010000FEFFFFFF37010000FEFFFFFFD3
S2144055DC37010000FCFFFFFF26010000FCFFFFFF29
S2144055EC0B020000080000008801000008000000C4
S2144055FC9F01000010000000D201000010000000C7
S21440560C0B020000080000008801000008000000A3
S21440561C9F01000010000000D201000010000000A6
S21440562C0B02000008000000880100000800000083
S21440563C9F01000010000000D20100001000000086
S21440564C0B02000008000000880100000800000063
S21440565C9F01000010000000D20100001000000066
S21440566C00000000040000003F0300001000000093
S21440567CA4030000100000001704000008000000FF
S21440568C10030000080000003F030000100000005C
S21440569CA4030000100000001704000008000000DF
S2144056AC10030000100000003F0300001000000034
S2144056BCA4030000100000001704000008000000BF
S2144056CC10030000080000003F030000100000001C
S2144056DCA403000010000000720000004D69692011
S2144056EC4368616E6E656C0000000000720100003D
S2144056FC080000000000000008000000B801000090
S21440570C080000002A02000008000000000000000C
S21440571C08000000B801000008000000000000006F
S21440572C080000007201000008000000260100007E
S21440573C08000000260100000800000026010000BA
S21440574C08000000000000000800000000000000F8
S21440575C04000000000000000800000015010000D6
S21440576C080000002601000008000000720100003E
S21440577C08000000B8010000080000002A020000E3
S21440578C080000000000000008000000B8010000FF
S21440579C0800000000000000080000005D0100004A
S2144057AC0800000093020000FCFFFFFF6E020000A2
S2144057BC080000004B02000008000000000000003B
S2144057CC0800000000000000040000009F010000DC
S2144057DC0800000000000000080000002A0200003C
S2144057EC08000000720100000800000000000000E5
S2144057FC080000002A02000008000000000000001C
S21440580C080000009F010000080000000000000097
S21440581C080000002A020000080000008801000072
S21440582C08000000720100000800000000000000A4
S21440583C080000004A0100000800000000000000BC
S21440584C080000004A010000080000004A01000061
S21440585C080000004A01000008000000000000009C
S21440586C0800000000000000040000004A01000090
S21440587C080000004A010000080000004A01000031
S21440588C08000000000000000800000000000000B7
S21440589C040000003701000008000000260100004C
S2144058AC0800000015010000080000000000000081
S2144058BC08000000B8010000080000002A020000A2
